:100000000C94FC000C9419010C9419010C94190126
:100010000C9419010C9419010C9419010C941901F8
:100020000C9419010C9419010C94C1030C94FC0359
:100030000C9419010C9419010C9419010C941901D8
:100040000C9419010C9419010C9419010C941901C8
:100050000C9419010C9419010C9419010C941901B8
:100060000C9419010C9419010C9419010C941901A8
:100070000C9419010C9419010C9419010C94190198
:100080000C9419010C9419010C9419010C94190188
:100090000C9419010C9419010C9419010C94190178
:1000A0000C9419010C9419010C9419015603530373
:1000B00050034D034A034703440341033E033B03FC
:1000C0003803350332032F032C03290326032303AC
:1000D00020031D031A031703140311030E030B035C
:1000E000080305030203FF02FC02F902F602F30211
:1000F000F002ED02EA02E702E402E102DE02DB02C4
:10010000D802D502D202CF02CC02C902C602C30273
:10011000C002BD02BA02B702B402B102AE02AB0223
:10012000A802A502A2029F029C0299029602000167
:10013000000062011200020000740143000300008D
:10014000B7010401030904BB011402030904D1012E
:100150001603030904E9010C0001C11201803601F4
:1001600081361201000202000010C0167A0400015C
:100170000102030109024300020100C03209040028
:100180000001020201000524001001052401010103
:10019000042402060524060001070582031000401E
:1001A00009040100020A00000007050302400000E4
:1001B0000705840240000004030904140359006F7A
:1001C000007500720020004E0061006D00650000A7
:1001D00000160355005300420020005300650072D2
:1001E00000690061006C0000000C03310032003334
:1001F000003400350000000011241FBECFEFDAE00C
:10020000DEBFCDBF11E0A0E0B1E0EEE2FDE002C054
:1002100005900D92A830B107D9F711E0A8E0B1E040
:1002200001C01D92AC30B107E1F70E941B010C9494
:1002300095060C94000080E88093610081E0809333
:100240006100569A5E9AFECF88E48AB91092CD007A
:1002500083E38093CC001092C80088E18093C900AA
:1002600086E08093CA000895982F8091C80085FF8A
:10027000FCCF9093CE000895FC0107C08091C80088
:1002800085FFFCCF9093CE00319690819923B1F7F2
:1002900008958091C80087FFFCCF8091CE0008951B
:1002A000DC0190E08091C80087FFFCCF8091CE00F8
:1002B000FD01E90FF11D80839F5F8A3011F08D30C1
:1002C00089F7A90FB11D1C92089587E084B980E5D4
:1002D0008CBD08958FEF8EBD0DB407FEFDCF8EB59A
:1002E00008958EBD0DB407FEFDCF8EB5089581E053
:1002F0008093D70080EA8093D80082E189BD09B459
:1003000000FEFDCF80E98093D8001092E0001092AB
:100310000801109209018CE08093E200789408951E
:100320008091080108952FB7F894809108018823DF
:1003300069F083E08093E9009BE68091E80085FD09
:1003400009C082FF03C09093E800F7CF2FBF2FEFC3
:100350003FEF0CC09091F1008091E80085FD03C053
:100360008BE68093E8002FBF292F30E0C901089564
:100370002FB7F89480910801882311F490E010C001
:1003800083E08093E9009091F200992349F48091F1
:10039000E80082FF05C085FD03C08BE68093E8007E
:1003A0002FBF892F089580910801882371F09FB78E
:1003B000F89483E08093E9002BE602C02093E800E4
:1003C0008091E80085FDFACF9FBF0895482F809166
:1003D00008018823D9F12FB7F89484E08093E900CD
:1003E00080910B01882341F08091E80085FD02C0D7
:1003F0002FBF12C010920B019091E400975E34E081
:100400008091E80085FD13C02FBF8091E40089171B
:1004100029F481E080930B018FEF0895809108010A
:100420008823A1F02FB7F8943093E900E9CF4093E7
:10043000F1008091E80085FD03C08AE38093E80025
:1004400085E080930A012FBF80E008958FEF089523
:10045000282F80910801882351F09FB7F89484E0F9
:100460008093E9008091E80085FD03C09FBF8FEF76
:1004700008952093F1008091E80085FD03C08AE390
:100480008093E80085E080930A019FBF80E0089593
:10049000CF93DF93EC0180910801882309F41CC1FC
:1004A0003FB7F89484E08093E90080910B018823A2
:1004B00009F408C18091E80085FD02C03FBF0CC16E
:1004C00010920B01FFC09091E400975E8091E800CC
:1004D00085FD13C03FBF8091E400891721F481E0BE
:1004E00080930B01F9C080910801882309F4F4C0BE
:1004F0003FB7F894B093E900E9CF8091F200242F40
:10050000281B822F90E06817790708F4262F822F86
:1005100090E08134910508F0C6C08A5A9F4FFC01D3
:10052000EE0FFF1F0590F491E02D099489918093BF
:10053000F10089918093F10089918093F100899174
:100540008093F10089918093F10089918093F1006B
:1005500089918093F10089918093F1008991809332
:10056000F10089918093F10089918093F100899144
:100570008093F10089918093F10089918093F1003B
:1005800089918093F10089918093F1008991809302
:10059000F10089918093F10089918093F100899114
:1005A0008093F10089918093F10089918093F1000B
:1005B00089918093F10089918093F10089918093D2
:1005C000F10089918093F10089918093F1008991E4
:1005D0008093F10089918093F10089918093F100DB
:1005E00089918093F10089918093F10089918093A2
:1005F000F10089918093F10089918093F1008991B4
:100600008093F10089918093F10089918093F100AA
:1006100089918093F10089918093F1008991809371
:10062000F10089918093F10089918093F100899183
:100630008093F10089918093F10089918093F1007A
:1006400089918093F10089918093F1008991809341
:10065000F10089918093F10089918093F100899153
:100660008093F10089918093F10089918093F1004A
:1006700089918093F10089918093F1008991809311
:10068000F10089918093F10089918093F100899123
:100690008093F10089918093F10089918093F1001A
:1006A00089918093F10089918093F1008091E80015
:1006B00085FD02C05093E800621B7109A0930A01F6
:1006C0003FBF04C0B4E040E45AE3A5E06115710502
:1006D00009F0F9CE80E001C08FEFDF91CF9108954E
:1006E0009FB7F89480910A01882341F084E08093B9
:1006F000E9008AE38093E80010920A019FBF089501
:1007000060910001709101018091020190910301BB
:1007100008958091040108958091050108958091C4
:1007200006010895809109010895282F9FB7F89434
:1007300080910801882339F082E08093E90080915C
:10074000E80085FD03C09FBF8FEF089581EA809385
:10075000F10080E28093F1001092F1001092F1001C
:100760001092F1001092F10081E08093F10010925C
:10077000F1002093F1008AE38093E8009FBF80E0BE
:1007800008951F920F920FB60F9211248F939F938B
:100790008091E1001092E100982F83FF11C0109228
:1007A000E90081E08093EB001092EC0082E18093FD
:1007B000ED0088E08093F00010920801109209018A
:1007C00092FF13C080910801882379F080910A017B
:1007D000882359F0815080930A01882331F484E002
:1007E0008093E9008AE38093E8009F918F910F90B6
:1007F0000FBE0F901F9018951F920F920FB60F9279
:1008000011240F931F932F933F934F935F936F93F5
:100810007F938F939F93AF93BF93EF93FF93109228
:10082000E9008091E80083FF3CC14091F1003091E4
:10083000F1008091F100682F70E02091F100922F7B
:1008400080E0682B792B8091F100A82FB0E02091F7
:10085000F100922F80E0A82BB92B1091F1000091AC
:10086000F10082EF8093E800363009F05AC025E3AA
:1008700031E0A90145505040F90137978591949195
:100880008617970701F5FA01859194918A179B07BE
:10089000D1F49A012E5F3F4FF901659174912E5F5B
:1008A0003F4FF9014491212F30E0902F80E0282B19
:1008B000392B2F3F310519F010F02FEF30E02417BE
:1008C00058F4422F09C0295F3F4F495F5F4FF1E065
:1008D0002F353F0789F6E5C05EEF8091E800282FAD
:1008E00030E0C90185709070892BB9F322FDDCC01E
:1008F000342F413108F030E1232FCB0106C0FC0139
:100900000196E491E093F10021502223C1F7630F97
:10091000711D431B5093E8004423F9F63031E9F28E
:10092000C3C0353061F48EEF8093E8008091E80019
:1009300080FFFCCF862F80688093E300B5C03930FC
:1009400051F5442309F0ADC06093080110920901EC
:1009500010920A018EEF8093E80088E591E021E093
:100960002093E900FC010196E491E093EB00EE2373
:1009700069F0AC014F5F5F4FFC0184918093EC0004
:10098000CA010196FA0134913093ED002F5F2530B2
:1009900039F78EE181C0383061F4403809F081C008
:1009A0008091E80080FFFCCF809108018093F100E6
:1009B00050C0313289F4413A09F073C08091E800A7
:1009C00080FFFCCFE0E0F1E081918093F10081E0D5
:1009D000E730F807C9F73DC03032A1F4413209F0E1
:1009E00060C08091E80082FFFCCFE0E0F1E0809100
:1009F000F100819381E0E730F807C9F78BEF80932E
:100A0000E80027C0323251F4413209F04AC0609305
:100A100009018091E80080FFFCCF1BC03323E9F47B
:100A20008091E80080FFFCCF423811F080E00DC0DB
:100A3000A093E9008091EB0090E025E096958795E2
:100A40002A95E1F781701092E9008093F1001092ED
:100A5000F1008EEF8093E80027C0313011F0333081
:100A600001F54230F1F4672BE1F42A2F2F77822F22
:100A700081508430B0F48EEF8093E8002093E90039
:100A8000333079F089E18093EB0081E090E002C09F
:100A9000880F991F2A95E2F78093EA001092EA00E6
:100AA00003C081E28093EB00FF91EF91BF91AF9182
:100AB0009F918F917F916F915F914F913F912F9176
:100AC0001F910F910F900FBE0F901F90189588E403
:100AD0008093B8000895982F1092BC0084EA809308
:100AE000BC008091BC0087FFFCCF8091B900887F5B
:100AF000883011F081E008959093BB0084E88093E2
:100B0000BC008091BC0087FFFCCF9091B900987F1A
:100B1000983111F480E0089580E0903409F081E08C
:100B200008958093BB0084E88093BC008091BC0052
:100B300087FFFCCF8091B90090E0887F883209F070
:100B400091E0892F089584EC8093BC008091BC00D3
:100B500087FFFCCF8091BB00089584E88093BC00A0
:100B60008091BC0087FFFCCF8091BB000895EF927D
:100B7000FF920F931F93CF93DF937B018A010E9413
:100B80006B058823A1F4C0E0D0E009C0F701EC0FA9
:100B9000FD1F80810E949105882349F42196C0178A
:100BA000D107A0F384E98093BC0080E001C081E01C
:100BB000DF91CF911F910F91FF90EF9008950F93C8
:100BC0001F93CF93DF93EB018A0181600E946B0535
:100BD000882311F081E029C020E030E0A8014150D5
:100BE000504094EC0EC09093BC008091BC0087FFF5
:100BF000FCCF8091BB00FE01E20FF31F80832F5FCB
:100C00003F4F2417350778F384E88093BC00809128
:100C1000BC0087FFFCCF8091BB00C00FD11F219784
:100C2000888384E98093BC0080E0DF91CF911F919D
:100C30000F910895CF92DF92EF92FF921F93CF937F
:100C4000DF93162F6A0179010E946B058823B9F49E
:100C5000812F0E949105C0E0D0E009C0F601EC0FA1
:100C6000FD1F80810E949105882349F42196CE15AD
:100C7000DF05A0F384E98093BC0080E001C081E03F
:100C8000DF91CF911F91FF90EF90DF90CF9008956B
:100C9000EF92FF920F931F93CF93DF93182F062F9E
:100CA000EA0179010E946B05882399F5802F0E9443
:100CB0009105812F81600E946B05882351F520E00A
:100CC00030E0A7014150504094EC0EC09093BC001E
:100CD0008091BC0087FFFCCF8091BB00FE01E20F3A
:100CE000F31F80832F5F3F4F2417350778F384E885
:100CF0008093BC008091BC0087FFFCCF8091BB003B
:100D0000CE0DDF1D2197888384E98093BC0080E0AD
:100D100001C081E0DF91CF911F910F91FF90EF9083
:0E0D2000089584E98093BC000895F894FFCFF5
:080D2E0000E1000000000800D4
:00000001FF
